:04000000C5EF00F058
:100008002682FACF06F0FBCF07F0E9CF08F0EACF57
:1000180009F0E1CF0AF0E2CF0BF0D9CF0CF0DACF3C
:100028000DF0F3CF0EF0F4CF0FF0F6CF10F0F7CFBE
:1000380011F0F8CF12F0F5CF13F09DB29EA202D0C6
:10004800E6EC01F0224A232A1A4A1B2A81B016D06C
:1000580024502510D8B41BBE11D01B5004E10A0E41
:100068001A5CD8A00BD0000E1F6E010E1E6E000E7B
:10007800176E320E166E8C868B8E17D081B21DD0FD
:1000880024502510D8B41BBE18D01B5004E10A0E0A
:100098001A5CD8A012D0000E216E010E206E000E40
:1000A800176E320E166E8C868C88000E256E010E29
:1000B800246E000E1B6E000E1A6E81BA08D0000E58
:1000C800176E320E166E8C868B988B9A8B9C81B825
:1000D80008D0000E176E280E166E8C868B888B9AA9
:1000E8008B9C81B608D0000E176E1E0E166E8C867D
:1000F8008B888B8A8B9C81B408D0000E176E140EE7
:10010800166E8C868B888B8A8B8C23BE1CD02350D2
:1001180004E10A0E225CD8A016D01E501F10D8B4D5
:1001280005D08BBE02D08B8E01D08B9E2050211023
:10013800D8B405D08CB802D08C8801D08C98000E29
:10014800236E000E226E13C0F5FF12C0F8FF11C017
:10015800F7FF10C0F6FF0FC0F4FF0EC0F3FF0DC08D
:10016800DAFF0CC0D9FF0BC0E2FF0AC0E1FF09C0EB
:10017800EAFF08C0E9FF07C0FBFF06C0FAFF2692A6
:1001880011009BEF01F024502510D8B412001E0472
:100198001F10D8A436D016501C5C1D50800A056E5E
:1001A8001750800A0558D8A029D014041510D8A4CF
:1001B80010D0020E026E110E016E80EC01F0020EDC
:1001C800026E110E016E65EC01F0000E156E000E48
:1001D8000FD0020E026E490E016E80EC01F0020E85
:1001E800026E490E016E65EC01F0000E156E010EEF
:1001F800146E000E1D6E000E1C6E12001C4A1D2A85
:10020800120020042110D8A4120016501C5C1D50A6
:10021800800A056E1750800A0558D8A029D0140402
:100228001510D8A410D0020E026E110E016E80ECCB
:1002380001F0020E026E490E016E65EC01F0000E2F
:10024800156E000E0FD0020E026E490E016E80EC84
:1002580001F0020E026E110E016E65EC01F0000E47
:10026800156E010E146E000E1D6E000E1C6E12002F
:100278001C4A1D2A1200000E8A6E000E896E040E9A
:100288000F013C6F000E8D6E000E8C6E000E8B6E93
:100298002E0E0F01386F000E0F01396FF80E0F0187
:1002A8003A6FFE0E0F013B6F6168E50E956E030E07
:1002B800966E9368070E946EC10E926EF19EF2963A
:1002C800120001C003F002C004F0D89004320332D7
:1002D800D8900432033203500F01556F01C003F068
:1002E800030E0316033AF00E03160F015451CF0BF9
:1002F80003100F01546F120001C003F002C004F094
:10030800D89004320332D8900432033203500F01DC
:10031800586F01C003F0030E0316033AF00E0316DC
:100328000F015751CF0B03100F01576F120000EE4A
:1003380014F0120EEE6AE806FDE126902692000EF1
:10034800F86E0001E1EF01F0EAEC01F03FEC01F09A
:10035800DAEC01F0C2EC01F0B5EC01F0CFEC01F001
:1003680012001C0E0F01546F840E0F01556F000E02
:100378000F01566FF30E0F01481712001C0E0F01E4
:10038800576F840E0F01586F000E0F01596FFC0E46
:100398000F01481712000A0EBA6E9B0EBB6E000EB4
:1003A800BC6E9E929D82EDEC01F01200300ED36E71
:1003B800040ED26E000E9B6E1200A8EC01F0F28EB5
:1003C800F28CFFD79E92C7EC00F01200D09E9F924D
:0603D8001200BA841200BD
:020000040020DA
:08000000FFFFFFFFFFFFFFFF00
:020000040030CA
:0E000000FF281F3CFFBF81FF0FC00FE00F4025
:00000001FF
